{
  "_format": "hh-sol-artifact-1",
  "contractName": "SupplyChain",
  "sourceName": "contracts/SupplyChain.sol",
  "abi": [
    {
      "inputs": [],
      "stateMutability": "nonpayable",
      "type": "constructor"
    },
    {
      "inputs": [],
      "name": "AccessControlBadConfirmation",
      "type": "error"
    },
    {
      "inputs": [
        {
          "internalType": "address",
          "name": "account",
          "type": "address"
        },
        {
          "internalType": "bytes32",
          "name": "neededRole",
          "type": "bytes32"
        }
      ],
      "name": "AccessControlUnauthorizedAccount",
      "type": "error"
    },
    {
      "inputs": [
        {
          "internalType": "address",
          "name": "owner",
          "type": "address"
        }
      ],
      "name": "OwnableInvalidOwner",
      "type": "error"
    },
    {
      "inputs": [
        {
          "internalType": "address",
          "name": "account",
          "type": "address"
        }
      ],
      "name": "OwnableUnauthorizedAccount",
      "type": "error"
    },
    {
      "anonymous": false,
      "inputs": [
        {
          "indexed": true,
          "internalType": "uint256",
          "name": "itemId",
          "type": "uint256"
        },
        {
          "indexed": false,
          "internalType": "string",
          "name": "name",
          "type": "string"
        },
        {
          "indexed": false,
          "internalType": "string",
          "name": "origin",
          "type": "string"
        },
        {
          "indexed": true,
          "internalType": "address",
          "name": "owner",
          "type": "address"
        }
      ],
      "name": "ItemCreated",
      "type": "event"
    },
    {
      "anonymous": false,
      "inputs": [
        {
          "indexed": true,
          "internalType": "uint256",
          "name": "itemId",
          "type": "uint256"
        },
        {
          "indexed": true,
          "internalType": "address",
          "name": "inspector",
          "type": "address"
        },
        {
          "indexed": false,
          "internalType": "bool",
          "name": "passed",
          "type": "bool"
        },
        {
          "indexed": false,
          "internalType": "string",
          "name": "remarks",
          "type": "string"
        }
      ],
      "name": "ItemInspected",
      "type": "event"
    },
    {
      "anonymous": false,
      "inputs": [
        {
          "indexed": true,
          "internalType": "uint256",
          "name": "itemId",
          "type": "uint256"
        },
        {
          "indexed": true,
          "internalType": "address",
          "name": "rejectedBy",
          "type": "address"
        },
        {
          "indexed": false,
          "internalType": "string",
          "name": "reason",
          "type": "string"
        }
      ],
      "name": "ItemRejected",
      "type": "event"
    },
    {
      "anonymous": false,
      "inputs": [
        {
          "indexed": true,
          "internalType": "address",
          "name": "previousOwner",
          "type": "address"
        },
        {
          "indexed": true,
          "internalType": "address",
          "name": "newOwner",
          "type": "address"
        }
      ],
      "name": "OwnershipTransferred",
      "type": "event"
    },
    {
      "anonymous": false,
      "inputs": [
        {
          "indexed": true,
          "internalType": "uint256",
          "name": "itemId",
          "type": "uint256"
        },
        {
          "indexed": true,
          "internalType": "address",
          "name": "from",
          "type": "address"
        },
        {
          "indexed": true,
          "internalType": "address",
          "name": "to",
          "type": "address"
        },
        {
          "indexed": false,
          "internalType": "enum SupplyChain.ItemStatus",
          "name": "status",
          "type": "uint8"
        }
      ],
      "name": "OwnershipTransferred",
      "type": "event"
    },
    {
      "anonymous": false,
      "inputs": [
        {
          "indexed": true,
          "internalType": "bytes32",
          "name": "role",
          "type": "bytes32"
        },
        {
          "indexed": true,
          "internalType": "bytes32",
          "name": "previousAdminRole",
          "type": "bytes32"
        },
        {
          "indexed": true,
          "internalType": "bytes32",
          "name": "newAdminRole",
          "type": "bytes32"
        }
      ],
      "name": "RoleAdminChanged",
      "type": "event"
    },
    {
      "anonymous": false,
      "inputs": [
        {
          "indexed": true,
          "internalType": "bytes32",
          "name": "role",
          "type": "bytes32"
        },
        {
          "indexed": true,
          "internalType": "address",
          "name": "account",
          "type": "address"
        },
        {
          "indexed": true,
          "internalType": "address",
          "name": "sender",
          "type": "address"
        }
      ],
      "name": "RoleGranted",
      "type": "event"
    },
    {
      "anonymous": false,
      "inputs": [
        {
          "indexed": true,
          "internalType": "bytes32",
          "name": "role",
          "type": "bytes32"
        },
        {
          "indexed": true,
          "internalType": "address",
          "name": "account",
          "type": "address"
        },
        {
          "indexed": true,
          "internalType": "address",
          "name": "sender",
          "type": "address"
        }
      ],
      "name": "RoleRevoked",
      "type": "event"
    },
    {
      "inputs": [],
      "name": "DEFAULT_ADMIN_ROLE",
      "outputs": [
        {
          "internalType": "bytes32",
          "name": "",
          "type": "bytes32"
        }
      ],
      "stateMutability": "view",
      "type": "function"
    },
    {
      "inputs": [],
      "name": "DISTRIBUTOR_ROLE",
      "outputs": [
        {
          "internalType": "bytes32",
          "name": "",
          "type": "bytes32"
        }
      ],
      "stateMutability": "view",
      "type": "function"
    },
    {
      "inputs": [],
      "name": "INSPECTOR_ROLE",
      "outputs": [
        {
          "internalType": "bytes32",
          "name": "",
          "type": "bytes32"
        }
      ],
      "stateMutability": "view",
      "type": "function"
    },
    {
      "inputs": [],
      "name": "MANUFACTURER_ROLE",
      "outputs": [
        {
          "internalType": "bytes32",
          "name": "",
          "type": "bytes32"
        }
      ],
      "stateMutability": "view",
      "type": "function"
    },
    {
      "inputs": [],
      "name": "PRODUCER_ROLE",
      "outputs": [
        {
          "internalType": "bytes32",
          "name": "",
          "type": "bytes32"
        }
      ],
      "stateMutability": "view",
      "type": "function"
    },
    {
      "inputs": [],
      "name": "RETAILER_ROLE",
      "outputs": [
        {
          "internalType": "bytes32",
          "name": "",
          "type": "bytes32"
        }
      ],
      "stateMutability": "view",
      "type": "function"
    },
    {
      "inputs": [],
      "name": "SUPPLIER_ROLE",
      "outputs": [
        {
          "internalType": "bytes32",
          "name": "",
          "type": "bytes32"
        }
      ],
      "stateMutability": "view",
      "type": "function"
    },
    {
      "inputs": [
        {
          "internalType": "address",
          "name": "_account",
          "type": "address"
        },
        {
          "internalType": "bytes32",
          "name": "_role",
          "type": "bytes32"
        }
      ],
      "name": "addRole",
      "outputs": [],
      "stateMutability": "nonpayable",
      "type": "function"
    },
    {
      "inputs": [
        {
          "internalType": "uint256",
          "name": "",
          "type": "uint256"
        },
        {
          "internalType": "uint256",
          "name": "",
          "type": "uint256"
        }
      ],
      "name": "auditTrail",
      "outputs": [
        {
          "internalType": "address",
          "name": "caller",
          "type": "address"
        },
        {
          "internalType": "string",
          "name": "remarks",
          "type": "string"
        },
        {
          "internalType": "uint256",
          "name": "timestamp",
          "type": "uint256"
        }
      ],
      "stateMutability": "view",
      "type": "function"
    },
    {
      "inputs": [
        {
          "internalType": "string",
          "name": "_name",
          "type": "string"
        },
        {
          "internalType": "string",
          "name": "_origin",
          "type": "string"
        }
      ],
      "name": "createItem",
      "outputs": [],
      "stateMutability": "nonpayable",
      "type": "function"
    },
    {
      "inputs": [
        {
          "internalType": "uint256",
          "name": "_itemId",
          "type": "uint256"
        }
      ],
      "name": "deliverItem",
      "outputs": [],
      "stateMutability": "nonpayable",
      "type": "function"
    },
    {
      "inputs": [
        {
          "internalType": "uint256",
          "name": "_itemId",
          "type": "uint256"
        }
      ],
      "name": "getAuditTrail",
      "outputs": [
        {
          "components": [
            {
              "internalType": "address",
              "name": "caller",
              "type": "address"
            },
            {
              "internalType": "string",
              "name": "remarks",
              "type": "string"
            },
            {
              "internalType": "uint256",
              "name": "timestamp",
              "type": "uint256"
            }
          ],
          "internalType": "struct SupplyChain.AuditTrail[]",
          "name": "",
          "type": "tuple[]"
        }
      ],
      "stateMutability": "view",
      "type": "function"
    },
    {
      "inputs": [
        {
          "internalType": "bytes32",
          "name": "role",
          "type": "bytes32"
        }
      ],
      "name": "getRoleAdmin",
      "outputs": [
        {
          "internalType": "bytes32",
          "name": "",
          "type": "bytes32"
        }
      ],
      "stateMutability": "view",
      "type": "function"
    },
    {
      "inputs": [
        {
          "internalType": "bytes32",
          "name": "role",
          "type": "bytes32"
        },
        {
          "internalType": "address",
          "name": "account",
          "type": "address"
        }
      ],
      "name": "grantRole",
      "outputs": [],
      "stateMutability": "nonpayable",
      "type": "function"
    },
    {
      "inputs": [
        {
          "internalType": "bytes32",
          "name": "role",
          "type": "bytes32"
        },
        {
          "internalType": "address",
          "name": "account",
          "type": "address"
        }
      ],
      "name": "hasRole",
      "outputs": [
        {
          "internalType": "bool",
          "name": "",
          "type": "bool"
        }
      ],
      "stateMutability": "view",
      "type": "function"
    },
    {
      "inputs": [
        {
          "internalType": "uint256",
          "name": "_itemId",
          "type": "uint256"
        },
        {
          "internalType": "bool",
          "name": "_passed",
          "type": "bool"
        },
        {
          "internalType": "string",
          "name": "_remarks",
          "type": "string"
        }
      ],
      "name": "inspectItem",
      "outputs": [],
      "stateMutability": "nonpayable",
      "type": "function"
    },
    {
      "inputs": [],
      "name": "itemCounter",
      "outputs": [
        {
          "internalType": "uint256",
          "name": "",
          "type": "uint256"
        }
      ],
      "stateMutability": "view",
      "type": "function"
    },
    {
      "inputs": [
        {
          "internalType": "uint256",
          "name": "",
          "type": "uint256"
        }
      ],
      "name": "items",
      "outputs": [
        {
          "internalType": "uint256",
          "name": "id",
          "type": "uint256"
        },
        {
          "internalType": "string",
          "name": "name",
          "type": "string"
        },
        {
          "internalType": "string",
          "name": "origin",
          "type": "string"
        },
        {
          "internalType": "address",
          "name": "currentOwner",
          "type": "address"
        },
        {
          "internalType": "enum SupplyChain.ItemStatus",
          "name": "status",
          "type": "uint8"
        },
        {
          "internalType": "uint256",
          "name": "timestamp",
          "type": "uint256"
        },
        {
          "internalType": "string",
          "name": "location",
          "type": "string"
        },
        {
          "internalType": "string",
          "name": "remarks",
          "type": "string"
        }
      ],
      "stateMutability": "view",
      "type": "function"
    },
    {
      "inputs": [],
      "name": "owner",
      "outputs": [
        {
          "internalType": "address",
          "name": "",
          "type": "address"
        }
      ],
      "stateMutability": "view",
      "type": "function"
    },
    {
      "inputs": [],
      "name": "renounceOwnership",
      "outputs": [],
      "stateMutability": "nonpayable",
      "type": "function"
    },
    {
      "inputs": [
        {
          "internalType": "bytes32",
          "name": "role",
          "type": "bytes32"
        },
        {
          "internalType": "address",
          "name": "callerConfirmation",
          "type": "address"
        }
      ],
      "name": "renounceRole",
      "outputs": [],
      "stateMutability": "nonpayable",
      "type": "function"
    },
    {
      "inputs": [
        {
          "internalType": "uint256",
          "name": "_itemId",
          "type": "uint256"
        },
        {
          "internalType": "string",
          "name": "_resolution",
          "type": "string"
        }
      ],
      "name": "resolveDispute",
      "outputs": [],
      "stateMutability": "nonpayable",
      "type": "function"
    },
    {
      "inputs": [
        {
          "internalType": "address",
          "name": "_account",
          "type": "address"
        },
        {
          "internalType": "bytes32",
          "name": "_role",
          "type": "bytes32"
        }
      ],
      "name": "revokeRole",
      "outputs": [],
      "stateMutability": "nonpayable",
      "type": "function"
    },
    {
      "inputs": [
        {
          "internalType": "bytes32",
          "name": "role",
          "type": "bytes32"
        },
        {
          "internalType": "address",
          "name": "account",
          "type": "address"
        }
      ],
      "name": "revokeRole",
      "outputs": [],
      "stateMutability": "nonpayable",
      "type": "function"
    },
    {
      "inputs": [
        {
          "internalType": "bytes4",
          "name": "interfaceId",
          "type": "bytes4"
        }
      ],
      "name": "supportsInterface",
      "outputs": [
        {
          "internalType": "bool",
          "name": "",
          "type": "bool"
        }
      ],
      "stateMutability": "view",
      "type": "function"
    },
    {
      "inputs": [
        {
          "internalType": "uint256",
          "name": "_itemId",
          "type": "uint256"
        },
        {
          "internalType": "address",
          "name": "_to",
          "type": "address"
        },
        {
          "internalType": "string",
          "name": "_location",
          "type": "string"
        }
      ],
      "name": "transferOwnership",
      "outputs": [],
      "stateMutability": "nonpayable",
      "type": "function"
    },
    {
      "inputs": [
        {
          "internalType": "address",
          "name": "newOwner",
          "type": "address"
        }
      ],
      "name": "transferOwnership",
      "outputs": [],
      "stateMutability": "nonpayable",
      "type": "function"
    },
    {
      "inputs": [
        {
          "internalType": "uint256",
          "name": "_itemId",
          "type": "uint256"
        },
        {
          "internalType": "enum SupplyChain.ItemStatus",
          "name": "_status",
          "type": "uint8"
        },
        {
          "internalType": "string",
          "name": "_statusUpdate",
          "type": "string"
        }
      ],
      "name": "updateStatus",
      "outputs": [],
      "stateMutability": "nonpayable",
      "type": "function"
    }
  ],
  "bytecode": "0x60806040523480156200001157600080fd5b5033600073ffffffffffffffffffffffffffffffffffffffff168173ffffffffffffffffffffffffffffffffffffffff1603620000885760006040517f1e4fbdf70000000000000000000000000000000000000000000000000000000081526004016200007f919062000335565b60405180910390fd5b6200009981620000b660201b60201c565b50620000af6000801b336200017a60201b60201c565b5062000352565b60008060009054906101000a900473ffffffffffffffffffffffffffffffffffffffff169050816000806101000a81548173ffffffffffffffffffffffffffffffffffffffff021916908373ffffffffffffffffffffffffffffffffffffffff1602179055508173ffffffffffffffffffffffffffffffffffffffff168173ffffffffffffffffffffffffffffffffffffffff167f8be0079c531659141344cd1fd0a4f28419497f9722a3daafe3b4186f6b6457e060405160405180910390a35050565b60006200018e83836200027d60201b60201c565b6200027257600180600085815260200190815260200160002060000160008473ffffffffffffffffffffffffffffffffffffffff1673ffffffffffffffffffffffffffffffffffffffff16815260200190815260200160002060006101000a81548160ff0219169083151502179055506200020e620002e860201b60201c565b73ffffffffffffffffffffffffffffffffffffffff168273ffffffffffffffffffffffffffffffffffffffff16847f2f8788117e7eff1d82e926ec794901d17c78024a50270940304540a733656f0d60405160405180910390a46001905062000277565b600090505b92915050565b60006001600084815260200190815260200160002060000160008373ffffffffffffffffffffffffffffffffffffffff1673ffffffffffffffffffffffffffffffffffffffff16815260200190815260200160002060009054906101000a900460ff16905092915050565b600033905090565b600073ffffffffffffffffffffffffffffffffffffffff82169050919050565b60006200031d82620002f0565b9050919050565b6200032f8162000310565b82525050565b60006020820190506200034c600083018462000324565b92915050565b6134c480620003626000396000f3fe608060405234801561001057600080fd5b50600436106101c45760003560e01c8063a217fddf116100f9578063cf51b45d11610097578063e03fd74c11610071578063e03fd74c146104e6578063e3a3c52214610502578063f0bd87cc14610520578063f2fde38b1461053e576101c4565b8063cf51b45d14610492578063d52166af146104ae578063d547741f146104ca576101c4565b8063bfb231d2116100d3578063bfb231d2146103db578063c231fa4614610412578063cb3e1fe714610442578063cbe1156f14610460576101c4565b8063a217fddf14610383578063a29508fc146103a1578063a73f7f8a146103bf576101c4565b8063715018a6116101665780638da5cb5b116101405780638da5cb5b146102fb57806391d1485414610319578063965288b014610349578063a0a5af5f14610367576101c4565b8063715018a6146102b957806371625641146102c3578063781f0b72146102df576101c4565b8063248a9ca3116101a2578063248a9ca3146102335780632f2ff15d1461026357806336568abe1461027f5780636d6d00ed1461029b576101c4565b806301ffc9a7146101c9578063208dd1ff146101f95780632115e7bf14610215575b600080fd5b6101e360048036038101906101de9190612320565b61055a565b6040516101f09190612368565b60405180910390f35b610213600480360381019061020e9190612417565b6105d4565b005b61021d6105ea565b60405161022a9190612466565b60405180910390f35b61024d60048036038101906102489190612481565b61060e565b60405161025a9190612466565b60405180910390f35b61027d600480360381019061027891906124ae565b61062e565b005b610299600480360381019061029491906124ae565b610650565b005b6102a36106cb565b6040516102b09190612507565b60405180910390f35b6102c16106d1565b005b6102dd60048036038101906102d89190612694565b6106e5565b005b6102f960048036038101906102f49190612728565b6109e8565b005b610303610c0f565b60405161031091906127a6565b60405180910390f35b610333600480360381019061032e91906124ae565b610c38565b6040516103409190612368565b60405180910390f35b610351610ca3565b60405161035e9190612466565b60405180910390f35b610381600480360381019061037c91906127c1565b610cc7565b005b61038b610fbf565b6040516103989190612466565b60405180910390f35b6103a9610fc6565b6040516103b69190612466565b60405180910390f35b6103d960048036038101906103d49190612417565b610fea565b005b6103f560048036038101906103f091906127c1565b611001565b6040516104099897969594939291906128e4565b60405180910390f35b61042c600480360381019061042791906127c1565b611296565b6040516104399190612af8565b60405180910390f35b61044a6113fa565b6040516104579190612466565b60405180910390f35b61047a60048036038101906104759190612b1a565b61141e565b60405161048993929190612b5a565b60405180910390f35b6104ac60048036038101906104a79190612b98565b61150d565b005b6104c860048036038101906104c39190612c20565b611638565b005b6104e460048036038101906104df91906124ae565b611a4d565b005b61050060048036038101906104fb9190612c8f565b611a6f565b005b61050a611de0565b6040516105179190612466565b60405180910390f35b610528611e04565b6040516105359190612466565b60405180910390f35b61055860048036038101906105539190612d07565b611e28565b005b60007f7965db0b000000000000000000000000000000000000000000000000000000007bffffffffffffffffffffffffffffffffffffffffffffffffffffffff1916827bffffffffffffffffffffffffffffffffffffffffffffffffffffffff191614806105cd57506105cc82611eae565b5b9050919050565b6105dc611f18565b6105e68183611a4d565b5050565b7f2a5f906c256a5d799494fcd066e1f6c077689de1cdb65052a1624de4bace99bf81565b600060016000838152602001908152602001600020600101549050919050565b6106378261060e565b61064081611f9f565b61064a8383611fb3565b50505050565b6106586120a4565b73ffffffffffffffffffffffffffffffffffffffff168173ffffffffffffffffffffffffffffffffffffffff16146106bc576040517f6697b23200000000000000000000000000000000000000000000000000000000815260040160405180910390fd5b6106c682826120ac565b505050565b60025481565b6106d9611f18565b6106e3600061219f565b565b7f8eb467f061ca67f42a2d2ca4a346fc9fb645efc0ba75056ee9f71c3a0ccc10a861070f81611f9f565b3373ffffffffffffffffffffffffffffffffffffffff166003600086815260200190815260200160002060030160009054906101000a900473ffffffffffffffffffffffffffffffffffffffff1673ffffffffffffffffffffffffffffffffffffffff16146107b3576040517f08c379a00000000000000000000000000000000000000000000000000000000081526004016107aa90612d80565b60405180910390fd5b826003600086815260200190815260200160002060030160006101000a81548173ffffffffffffffffffffffffffffffffffffffff021916908373ffffffffffffffffffffffffffffffffffffffff16021790555060016003600086815260200190815260200160002060030160146101000a81548160ff021916908360048111156108425761084161286d565b5b0217905550426003600086815260200190815260200160002060040181905550816003600086815260200190815260200160002060050190816108859190612fac565b506004600085815260200190815260200160002060405180606001604052803373ffffffffffffffffffffffffffffffffffffffff168152602001846040516020016108d19190613106565b604051602081830303815290604052815260200142815250908060018154018082558091505060019003906000526020600020906003020160009091909190915060008201518160000160006101000a81548173ffffffffffffffffffffffffffffffffffffffff021916908373ffffffffffffffffffffffffffffffffffffffff160217905550602082015181600101908161096e9190612fac565b506040820151816002015550508273ffffffffffffffffffffffffffffffffffffffff163373ffffffffffffffffffffffffffffffffffffffff16857f0d9d3ad1299833596bec6138aae47314cbb71fb92c7582abed06e22840593ad460016040516109da9190613128565b60405180910390a450505050565b7fd1ae8bbdabd60d63e418b84f5ad6f9cba90092c9816d7724d85f0d4e4bea2c60610a1281611f9f565b3373ffffffffffffffffffffffffffffffffffffffff166003600086815260200190815260200160002060030160009054906101000a900473ffffffffffffffffffffffffffffffffffffffff1673ffffffffffffffffffffffffffffffffffffffff1614610ab6576040517f08c379a0000000000000000000000000000000000000000000000000000000008152600401610aad90612d80565b60405180910390fd5b826003600086815260200190815260200160002060030160146101000a81548160ff02191690836004811115610aef57610aee61286d565b5b021790555081600360008681526020019081526020016000206006019081610b179190612fac565b504260036000868152602001908152602001600020600401819055506004600085815260200190815260200160002060405180606001604052803373ffffffffffffffffffffffffffffffffffffffff16815260200184815260200142815250908060018154018082558091505060019003906000526020600020906003020160009091909190915060008201518160000160006101000a81548173ffffffffffffffffffffffffffffffffffffffff021916908373ffffffffffffffffffffffffffffffffffffffff1602179055506020820151816001019081610bfc9190612fac565b5060408201518160020155505050505050565b60008060009054906101000a900473ffffffffffffffffffffffffffffffffffffffff16905090565b60006001600084815260200190815260200160002060000160008373ffffffffffffffffffffffffffffffffffffffff1673ffffffffffffffffffffffffffffffffffffffff16815260200190815260200160002060009054906101000a900460ff16905092915050565b7feefb95e842a3287179d933b4460be539a1d5af11aa8b325bb45c5c8dc92de4ed81565b7ffbd454f36a7e1a388bd6fc3ab10d434aa4578f811acbbcf33afb1c697486313c610cf181611f9f565b3373ffffffffffffffffffffffffffffffffffffffff166003600084815260200190815260200160002060030160009054906101000a900473ffffffffffffffffffffffffffffffffffffffff1673ffffffffffffffffffffffffffffffffffffffff1614610d95576040517f08c379a0000000000000000000000000000000000000000000000000000000008152600401610d8c9061318f565b60405180910390fd5b60026003600084815260200190815260200160002060030160146101000a81548160ff02191690836004811115610dcf57610dce61286d565b5b02179055504260036000848152602001908152602001600020600401819055506040518060400160405280600981526020017f44656c6976657265640000000000000000000000000000000000000000000000815250600360008481526020019081526020016000206006019081610e479190612fac565b506004600083815260200190815260200160002060405180606001604052803373ffffffffffffffffffffffffffffffffffffffff1681526020016040518060400160405280601f81526020017f44656c69766572656420746f2066696e616c2064657374696e6174696f6e2e00815250815260200142815250908060018154018082558091505060019003906000526020600020906003020160009091909190915060008201518160000160006101000a81548173ffffffffffffffffffffffffffffffffffffffff021916908373ffffffffffffffffffffffffffffffffffffffff1602179055506020820151816001019081610f469190612fac565b50604082015181600201555050600073ffffffffffffffffffffffffffffffffffffffff163373ffffffffffffffffffffffffffffffffffffffff16837f0d9d3ad1299833596bec6138aae47314cbb71fb92c7582abed06e22840593ad46002604051610fb39190613128565b60405180910390a45050565b6000801b81565b7fd1ae8bbdabd60d63e418b84f5ad6f9cba90092c9816d7724d85f0d4e4bea2c6081565b610ff2611f18565b610ffc8183611fb3565b505050565b600360205280600052604060002060009150905080600001549080600101805461102a90612dcf565b80601f016020809104026020016040519081016040528092919081815260200182805461105690612dcf565b80156110a35780601f10611078576101008083540402835291602001916110a3565b820191906000526020600020905b81548152906001019060200180831161108657829003601f168201915b5050505050908060020180546110b890612dcf565b80601f01602080910402602001604051908101604052809291908181526020018280546110e490612dcf565b80156111315780601f1061110657610100808354040283529160200191611131565b820191906000526020600020905b81548152906001019060200180831161111457829003601f168201915b5050505050908060030160009054906101000a900473ffffffffffffffffffffffffffffffffffffffff16908060030160149054906101000a900460ff169080600401549080600501805461118590612dcf565b80601f01602080910402602001604051908101604052809291908181526020018280546111b190612dcf565b80156111fe5780601f106111d3576101008083540402835291602001916111fe565b820191906000526020600020905b8154815290600101906020018083116111e157829003601f168201915b50505050509080600601805461121390612dcf565b80601f016020809104026020016040519081016040528092919081815260200182805461123f90612dcf565b801561128c5780601f106112615761010080835404028352916020019161128c565b820191906000526020600020905b81548152906001019060200180831161126f57829003601f168201915b5050505050905088565b606060046000838152602001908152602001600020805480602002602001604051908101604052809291908181526020016000905b828210156113ef57838290600052602060002090600302016040518060600160405290816000820160009054906101000a900473ffffffffffffffffffffffffffffffffffffffff1673ffffffffffffffffffffffffffffffffffffffff1673ffffffffffffffffffffffffffffffffffffffff16815260200160018201805461135490612dcf565b80601f016020809104026020016040519081016040528092919081815260200182805461138090612dcf565b80156113cd5780601f106113a2576101008083540402835291602001916113cd565b820191906000526020600020905b8154815290600101906020018083116113b057829003601f168201915b50505050508152602001600282015481525050815260200190600101906112cb565b505050509050919050565b7f8eb467f061ca67f42a2d2ca4a346fc9fb645efc0ba75056ee9f71c3a0ccc10a881565b6004602052816000526040600020818154811061143a57600080fd5b9060005260206000209060030201600091509150508060000160009054906101000a900473ffffffffffffffffffffffffffffffffffffffff169080600101805461148490612dcf565b80601f01602080910402602001604051908101604052809291908181526020018280546114b090612dcf565b80156114fd5780601f106114d2576101008083540402835291602001916114fd565b820191906000526020600020905b8154815290600101906020018083116114e057829003601f168201915b5050505050908060020154905083565b6000801b61151a81611f9f565b6004600084815260200190815260200160002060405180606001604052803373ffffffffffffffffffffffffffffffffffffffff1681526020018460405160200161156591906131fb565b604051602081830303815290604052815260200142815250908060018154018082558091505060019003906000526020600020906003020160009091909190915060008201518160000160006101000a81548173ffffffffffffffffffffffffffffffffffffffff021916908373ffffffffffffffffffffffffffffffffffffffff16021790555060208201518160010190816116029190612fac565b50604082015181600201555050816003600085815260200190815260200160002060060190816116329190612fac565b50505050565b7f273dcf2136c7d8ef632bb8ef13dbca69a8f36fa620c7468671b3153d46a211c061166281611f9f565b600160048111156116765761167561286d565b5b6003600086815260200190815260200160002060030160149054906101000a900460ff1660048111156116ac576116ab61286d565b5b146116ec576040517f08c379a00000000000000000000000000000000000000000000000000000000081526004016116e390613269565b60405180910390fd5b821561184e57600380600086815260200190815260200160002060030160146101000a81548160ff0219169083600481111561172b5761172a61286d565b5b0217905550816003600086815260200190815260200160002060060190816117539190612fac565b506004600085815260200190815260200160002060405180606001604052803373ffffffffffffffffffffffffffffffffffffffff1681526020018460405160200161179f91906132d5565b604051602081830303815290604052815260200142815250908060018154018082558091505060019003906000526020600020906003020160009091909190915060008201518160000160006101000a81548173ffffffffffffffffffffffffffffffffffffffff021916908373ffffffffffffffffffffffffffffffffffffffff160217905550602082015181600101908161183c9190612fac565b506040820151816002015550506119f6565b60046003600086815260200190815260200160002060030160146101000a81548160ff021916908360048111156118885761188761286d565b5b0217905550816003600086815260200190815260200160002060060190816118b09190612fac565b506004600085815260200190815260200160002060405180606001604052803373ffffffffffffffffffffffffffffffffffffffff168152602001846040516020016118fc9190613343565b604051602081830303815290604052815260200142815250908060018154018082558091505060019003906000526020600020906003020160009091909190915060008201518160000160006101000a81548173ffffffffffffffffffffffffffffffffffffffff021916908373ffffffffffffffffffffffffffffffffffffffff16021790555060208201518160010190816119999190612fac565b506040820151816002015550503373ffffffffffffffffffffffffffffffffffffffff16847fe8b0e7d4d8546a401bc2dae9a3ef8a2aee3beec0554a47d64e81517a19fca362846040516119ed9190613365565b60405180910390a35b3373ffffffffffffffffffffffffffffffffffffffff16847f2dc3c564120075b9d89adca28a548bc64da631d48c7463842cbcab9d3e571fad8585604051611a3f929190613387565b60405180910390a350505050565b611a568261060e565b611a5f81611f9f565b611a6983836120ac565b50505050565b7f8eb467f061ca67f42a2d2ca4a346fc9fb645efc0ba75056ee9f71c3a0ccc10a8611a9981611f9f565b60026000815480929190611aac906133e6565b919050555060405180610100016040528060025481526020018481526020018381526020013373ffffffffffffffffffffffffffffffffffffffff16815260200160006004811115611b0157611b0061286d565b5b81526020014281526020016040518060400160405280600681526020017f4f726967696e000000000000000000000000000000000000000000000000000081525081526020016040518060400160405280600d81526020017f4974656d20437265617465642e00000000000000000000000000000000000000815250815250600360006002548152602001908152602001600020600082015181600001556020820151816001019081611bb49190612fac565b506040820151816002019081611bca9190612fac565b5060608201518160030160006101000a81548173ffffffffffffffffffffffffffffffffffffffff021916908373ffffffffffffffffffffffffffffffffffffffff16021790555060808201518160030160146101000a81548160ff02191690836004811115611c3d57611c3c61286d565b5b021790555060a0820151816004015560c0820151816005019081611c619190612fac565b5060e0820151816006019081611c779190612fac565b5090505060046000600254815260200190815260200160002060405180606001604052803373ffffffffffffffffffffffffffffffffffffffff1681526020016040518060400160405280601e81526020017f43726561746564206174204f726967696e2062792070726f64756365722e0000815250815260200142815250908060018154018082558091505060019003906000526020600020906003020160009091909190915060008201518160000160006101000a81548173ffffffffffffffffffffffffffffffffffffffff021916908373ffffffffffffffffffffffffffffffffffffffff1602179055506020820151816001019081611d7b9190612fac565b506040820151816002015550503373ffffffffffffffffffffffffffffffffffffffff166002547f388712a1b48456b44db33c18caa4a23bc087d8f8e3dc89836d3c92cd5460fd468585604051611dd392919061342e565b60405180910390a3505050565b7f273dcf2136c7d8ef632bb8ef13dbca69a8f36fa620c7468671b3153d46a211c081565b7ffbd454f36a7e1a388bd6fc3ab10d434aa4578f811acbbcf33afb1c697486313c81565b611e30611f18565b600073ffffffffffffffffffffffffffffffffffffffff168173ffffffffffffffffffffffffffffffffffffffff1603611ea25760006040517f1e4fbdf7000000000000000000000000000000000000000000000000000000008152600401611e9991906127a6565b60405180910390fd5b611eab8161219f565b50565b60007f01ffc9a7000000000000000000000000000000000000000000000000000000007bffffffffffffffffffffffffffffffffffffffffffffffffffffffff1916827bffffffffffffffffffffffffffffffffffffffffffffffffffffffff1916149050919050565b611f206120a4565b73ffffffffffffffffffffffffffffffffffffffff16611f3e610c0f565b73ffffffffffffffffffffffffffffffffffffffff1614611f9d57611f616120a4565b6040517f118cdaa7000000000000000000000000000000000000000000000000000000008152600401611f9491906127a6565b60405180910390fd5b565b611fb081611fab6120a4565b612263565b50565b6000611fbf8383610c38565b61209957600180600085815260200190815260200160002060000160008473ffffffffffffffffffffffffffffffffffffffff1673ffffffffffffffffffffffffffffffffffffffff16815260200190815260200160002060006101000a81548160ff0219169083151502179055506120366120a4565b73ffffffffffffffffffffffffffffffffffffffff168273ffffffffffffffffffffffffffffffffffffffff16847f2f8788117e7eff1d82e926ec794901d17c78024a50270940304540a733656f0d60405160405180910390a46001905061209e565b600090505b92915050565b600033905090565b60006120b88383610c38565b156121945760006001600085815260200190815260200160002060000160008473ffffffffffffffffffffffffffffffffffffffff1673ffffffffffffffffffffffffffffffffffffffff16815260200190815260200160002060006101000a81548160ff0219169083151502179055506121316120a4565b73ffffffffffffffffffffffffffffffffffffffff168273ffffffffffffffffffffffffffffffffffffffff16847ff6391f5c32d9c69d2a47ea670b442974b53935d1edc7fd64eb21e047a839171b60405160405180910390a460019050612199565b600090505b92915050565b60008060009054906101000a900473ffffffffffffffffffffffffffffffffffffffff169050816000806101000a81548173ffffffffffffffffffffffffffffffffffffffff021916908373ffffffffffffffffffffffffffffffffffffffff1602179055508173ffffffffffffffffffffffffffffffffffffffff168173ffffffffffffffffffffffffffffffffffffffff167f8be0079c531659141344cd1fd0a4f28419497f9722a3daafe3b4186f6b6457e060405160405180910390a35050565b61226d8282610c38565b6122b05780826040517fe2517d3f0000000000000000000000000000000000000000000000000000000081526004016122a7929190613465565b60405180910390fd5b5050565b6000604051905090565b600080fd5b600080fd5b60007fffffffff0000000000000000000000000000000000000000000000000000000082169050919050565b6122fd816122c8565b811461230857600080fd5b50565b60008135905061231a816122f4565b92915050565b600060208284031215612336576123356122be565b5b60006123448482850161230b565b91505092915050565b60008115159050919050565b6123628161234d565b82525050565b600060208201905061237d6000830184612359565b92915050565b600073ffffffffffffffffffffffffffffffffffffffff82169050919050565b60006123ae82612383565b9050919050565b6123be816123a3565b81146123c957600080fd5b50565b6000813590506123db816123b5565b92915050565b6000819050919050565b6123f4816123e1565b81146123ff57600080fd5b50565b600081359050612411816123eb565b92915050565b6000806040838503121561242e5761242d6122be565b5b600061243c858286016123cc565b925050602061244d85828601612402565b9150509250929050565b612460816123e1565b82525050565b600060208201905061247b6000830184612457565b92915050565b600060208284031215612497576124966122be565b5b60006124a584828501612402565b91505092915050565b600080604083850312156124c5576124c46122be565b5b60006124d385828601612402565b92505060206124e4858286016123cc565b9150509250929050565b6000819050919050565b612501816124ee565b82525050565b600060208201905061251c60008301846124f8565b92915050565b61252b816124ee565b811461253657600080fd5b50565b60008135905061254881612522565b92915050565b600080fd5b600080fd5b6000601f19601f8301169050919050565b7f4e487b7100000000000000000000000000000000000000000000000000000000600052604160045260246000fd5b6125a182612558565b810181811067ffffffffffffffff821117156125c0576125bf612569565b5b80604052505050565b60006125d36122b4565b90506125df8282612598565b919050565b600067ffffffffffffffff8211156125ff576125fe612569565b5b61260882612558565b9050602081019050919050565b82818337600083830152505050565b6000612637612632846125e4565b6125c9565b90508281526020810184848401111561265357612652612553565b5b61265e848285612615565b509392505050565b600082601f83011261267b5761267a61254e565b5b813561268b848260208601612624565b91505092915050565b6000806000606084860312156126ad576126ac6122be565b5b60006126bb86828701612539565b93505060206126cc868287016123cc565b925050604084013567ffffffffffffffff8111156126ed576126ec6122c3565b5b6126f986828701612666565b9150509250925092565b6005811061271057600080fd5b50565b60008135905061272281612703565b92915050565b600080600060608486031215612741576127406122be565b5b600061274f86828701612539565b935050602061276086828701612713565b925050604084013567ffffffffffffffff811115612781576127806122c3565b5b61278d86828701612666565b9150509250925092565b6127a0816123a3565b82525050565b60006020820190506127bb6000830184612797565b92915050565b6000602082840312156127d7576127d66122be565b5b60006127e584828501612539565b91505092915050565b600081519050919050565b600082825260208201905092915050565b60005b8381101561282857808201518184015260208101905061280d565b60008484015250505050565b600061283f826127ee565b61284981856127f9565b935061285981856020860161280a565b61286281612558565b840191505092915050565b7f4e487b7100000000000000000000000000000000000000000000000000000000600052602160045260246000fd5b600581106128ad576128ac61286d565b5b50565b60008190506128be8261289c565b919050565b60006128ce826128b0565b9050919050565b6128de816128c3565b82525050565b6000610100820190506128fa600083018b6124f8565b818103602083015261290c818a612834565b905081810360408301526129208189612834565b905061292f6060830188612797565b61293c60808301876128d5565b61294960a08301866124f8565b81810360c083015261295b8185612834565b905081810360e083015261296f8184612834565b90509998505050505050505050565b600081519050919050565b600082825260208201905092915050565b6000819050602082019050919050565b6129b3816123a3565b82525050565b600082825260208201905092915050565b60006129d5826127ee565b6129df81856129b9565b93506129ef81856020860161280a565b6129f881612558565b840191505092915050565b612a0c816124ee565b82525050565b6000606083016000830151612a2a60008601826129aa565b5060208301518482036020860152612a4282826129ca565b9150506040830151612a576040860182612a03565b508091505092915050565b6000612a6e8383612a12565b905092915050565b6000602082019050919050565b6000612a8e8261297e565b612a988185612989565b935083602082028501612aaa8561299a565b8060005b85811015612ae65784840389528151612ac78582612a62565b9450612ad283612a76565b925060208a01995050600181019050612aae565b50829750879550505050505092915050565b60006020820190508181036000830152612b128184612a83565b905092915050565b60008060408385031215612b3157612b306122be565b5b6000612b3f85828601612539565b9250506020612b5085828601612539565b9150509250929050565b6000606082019050612b6f6000830186612797565b8181036020830152612b818185612834565b9050612b9060408301846124f8565b949350505050565b60008060408385031215612baf57612bae6122be565b5b6000612bbd85828601612539565b925050602083013567ffffffffffffffff811115612bde57612bdd6122c3565b5b612bea85828601612666565b9150509250929050565b612bfd8161234d565b8114612c0857600080fd5b50565b600081359050612c1a81612bf4565b92915050565b600080600060608486031215612c3957612c386122be565b5b6000612c4786828701612539565b9350506020612c5886828701612c0b565b925050604084013567ffffffffffffffff811115612c7957612c786122c3565b5b612c8586828701612666565b9150509250925092565b60008060408385031215612ca657612ca56122be565b5b600083013567ffffffffffffffff811115612cc457612cc36122c3565b5b612cd085828601612666565b925050602083013567ffffffffffffffff811115612cf157612cf06122c3565b5b612cfd85828601612666565b9150509250929050565b600060208284031215612d1d57612d1c6122be565b5b6000612d2b848285016123cc565b91505092915050565b7f43616c6c6572206973206e6f7420746865206f776e65722e0000000000000000600082015250565b6000612d6a6018836127f9565b9150612d7582612d34565b602082019050919050565b60006020820190508181036000830152612d9981612d5d565b9050919050565b7f4e487b7100000000000000000000000000000000000000000000000000000000600052602260045260246000fd5b60006002820490506001821680612de757607f821691505b602082108103612dfa57612df9612da0565b5b50919050565b60008190508160005260206000209050919050565b60006020601f8301049050919050565b600082821b905092915050565b600060088302612e627fffffffffffffffffffffffffffffffffffffffffffffffffffffffffffffffff82612e25565b612e6c8683612e25565b95508019841693508086168417925050509392505050565b6000819050919050565b6000612ea9612ea4612e9f846124ee565b612e84565b6124ee565b9050919050565b6000819050919050565b612ec383612e8e565b612ed7612ecf82612eb0565b848454612e32565b825550505050565b600090565b612eec612edf565b612ef7818484612eba565b505050565b5b81811015612f1b57612f10600082612ee4565b600181019050612efd565b5050565b601f821115612f6057612f3181612e00565b612f3a84612e15565b81016020851015612f49578190505b612f5d612f5585612e15565b830182612efc565b50505b505050565b600082821c905092915050565b6000612f8360001984600802612f65565b1980831691505092915050565b6000612f9c8383612f72565b9150826002028217905092915050565b612fb5826127ee565b67ffffffffffffffff811115612fce57612fcd612569565b5b612fd88254612dcf565b612fe3828285612f1f565b600060209050601f8311600181146130165760008415613004578287015190505b61300e8582612f90565b865550613076565b601f19841661302486612e00565b60005b8281101561304c57848901518255600182019150602085019450602081019050613027565b868310156130695784890151613065601f891682612f72565b8355505b6001600288020188555050505b505050505050565b600081905092915050565b7f5472616e7366657272656420746f200000000000000000000000000000000000600082015250565b60006130bf600f8361307e565b91506130ca82613089565b600f82019050919050565b60006130e0826127ee565b6130ea818561307e565b93506130fa81856020860161280a565b80840191505092915050565b6000613111826130b2565b915061311d82846130d5565b915081905092915050565b600060208201905061313d60008301846128d5565b92915050565b7f43616c6c6572206973206e6f7420746865206f776e6572000000000000000000600082015250565b60006131796017836127f9565b915061318482613143565b602082019050919050565b600060208201905081810360008301526131a88161316c565b9050919050565b7f44697370757465207265736f6c7665643a200000000000000000000000000000600082015250565b60006131e560128361307e565b91506131f0826131af565b601282019050919050565b6000613206826131d8565b915061321282846130d5565b915081905092915050565b7f4974656d206d75737420626520696e207472616e7369742e0000000000000000600082015250565b60006132536018836127f9565b915061325e8261321d565b602082019050919050565b6000602082019050818103600083015261328281613246565b9050919050565b7f496e7370656374696f6e207061737365643a2000000000000000000000000000600082015250565b60006132bf60138361307e565b91506132ca82613289565b601382019050919050565b60006132e0826132b2565b91506132ec82846130d5565b915081905092915050565b7f496e7370656374696f6e206661696c65643a2000000000000000000000000000600082015250565b600061332d60138361307e565b9150613338826132f7565b601382019050919050565b600061334e82613320565b915061335a82846130d5565b915081905092915050565b6000602082019050818103600083015261337f8184612834565b905092915050565b600060408201905061339c6000830185612359565b81810360208301526133ae8184612834565b90509392505050565b7f4e487b7100000000000000000000000000000000000000000000000000000000600052601160045260246000fd5b60006133f1826124ee565b91507fffffffffffffffffffffffffffffffffffffffffffffffffffffffffffffffff8203613423576134226133b7565b5b600182019050919050565b600060408201905081810360008301526134488185612834565b9050818103602083015261345c8184612834565b90509392505050565b600060408201905061347a6000830185612797565b6134876020830184612457565b939250505056fea26469706673582212204969726696b61fe3540498e25aa78456c7699f5407c8166623cb77b23cdf740264736f6c63430008180033",
  "linkReferences": {},
  "deployedLinkReferences": {}
}